{
  "contractName": "ERC721Enumerable",
  "abi": [
    {
      "anonymous": false,
      "inputs": [
        {
          "indexed": true,
          "internalType": "address",
          "name": "from",
          "type": "address"
        },
        {
          "indexed": true,
          "internalType": "address",
          "name": "to",
          "type": "address"
        },
        {
          "indexed": true,
          "internalType": "uint256",
          "name": "tokenId",
          "type": "uint256"
        }
      ],
      "name": "Trasnfer",
      "type": "event"
    },
    {
      "inputs": [
        {
          "internalType": "address",
          "name": "_owner",
          "type": "address"
        }
      ],
      "name": "balanceOf",
      "outputs": [
        {
          "internalType": "uint256",
          "name": "",
          "type": "uint256"
        }
      ],
      "stateMutability": "view",
      "type": "function"
    },
    {
      "inputs": [
        {
          "internalType": "uint256",
          "name": "tokenId",
          "type": "uint256"
        }
      ],
      "name": "ownerOf",
      "outputs": [
        {
          "internalType": "address",
          "name": "",
          "type": "address"
        }
      ],
      "stateMutability": "view",
      "type": "function"
    },
    {
      "inputs": [],
      "name": "totalSupply",
      "outputs": [
        {
          "internalType": "uint256",
          "name": "",
          "type": "uint256"
        }
      ],
      "stateMutability": "view",
      "type": "function"
    }
  ],
  "bytecode": "0x608060405234801561001057600080fd5b5061045e806100206000396000f3fe608060405234801561001057600080fd5b50600436106100415760003560e01c806318160ddd146100465780636352211e1461006457806370a0823114610094575b600080fd5b61004e6100c4565b60405161005b919061027d565b60405180910390f35b61007e600480360381019061007991906102c9565b6100d1565b60405161008b9190610337565b60405180910390f35b6100ae60048036038101906100a9919061037e565b6101ad565b6040516100bb919061027d565b60405180910390f35b6000600280549050905090565b60008073ffffffffffffffffffffffffffffffffffffffff1660008084815260200190815260200160002060009054906101000a900473ffffffffffffffffffffffffffffffffffffffff1673ffffffffffffffffffffffffffffffffffffffff1603610173576040517f08c379a000000000000000000000000000000000000000000000000000000000815260040161016a90610408565b60405180910390fd5b60008083815260200190815260200160002060009054906101000a900473ffffffffffffffffffffffffffffffffffffffff169050919050565b60008073ffffffffffffffffffffffffffffffffffffffff168273ffffffffffffffffffffffffffffffffffffffff160361021d576040517f08c379a000000000000000000000000000000000000000000000000000000000815260040161021490610408565b60405180910390fd5b600160008373ffffffffffffffffffffffffffffffffffffffff1673ffffffffffffffffffffffffffffffffffffffff168152602001908152602001600020549050919050565b6000819050919050565b61027781610264565b82525050565b6000602082019050610292600083018461026e565b92915050565b600080fd5b6102a681610264565b81146102b157600080fd5b50565b6000813590506102c38161029d565b92915050565b6000602082840312156102df576102de610298565b5b60006102ed848285016102b4565b91505092915050565b600073ffffffffffffffffffffffffffffffffffffffff82169050919050565b6000610321826102f6565b9050919050565b61033181610316565b82525050565b600060208201905061034c6000830184610328565b92915050565b61035b81610316565b811461036657600080fd5b50565b60008135905061037881610352565b92915050565b60006020828403121561039457610393610298565b5b60006103a284828501610369565b91505092915050565b600082825260208201905092915050565b7f6f776e6572206e667473206e6f74206578697374730000000000000000000000600082015250565b60006103f26015836103ab565b91506103fd826103bc565b602082019050919050565b60006020820190508181036000830152610421816103e5565b905091905056fea264697066735822122065aceef23a335e3b460f8548eaaaefb069bf647904990d04d0601fc79495827d64736f6c634300080d0033",
  "immutableReferences": {},
  "source": "// SPDX-License-Identifier: MIT\r\npragma solidity ^0.8.0;\r\n\r\nimport \"./ERC721.sol\";\r\n\r\ncontract ERC721Enumerable is ERC721{\r\n\r\n    uint256[] private _allTokens;\r\n \r\n    //mapping from token id to postion in _allTokens array\r\n    mapping(uint256 => uint256) private _allTokenIndex;\r\n\r\n    // mapping of owner to list of all owner token ids\r\n    mapping(address => uint256[]) private ownedTokens;\r\n    \r\n    //mapping from token ID to index of the owner token list\r\n    mapping(uint256 => uint256[]) private ownedTokenIndex;\r\n\r\n    function totalSupply() public view returns(uint256){\r\n        return _allTokens.length;\r\n    }\r\n\r\n    function _mint (address to , uint256 _tokenId) internal override(ERC721){\r\n        super._mint(to, _tokenId);\r\n        _addTokenToTotalSupply(_tokenId);\r\n        ownedTokens[to].push(_tokenId); \r\n    }\r\n\r\n    function _addTokenToTotalSupply(uint256 tokenId) private{\r\n        _allTokens.push(tokenId);\r\n\r\n    }\r\n\r\n    \r\n}",
  "sourcePath": "D:\\practice\\erc721 with truffle\\contracts\\ERC721Enumerable.sol",
  "compiler": {
    "name": "solc",
    "version": "0.8.13+commit.abaa5c0e.Emscripten.clang"
  },
  "schemaVersion": "3.4.6",
  "updatedAt": "2022-07-20T18:16:13.363Z",
  "devdoc": {
    "kind": "dev",
    "methods": {},
    "version": 1
  },
  "userdoc": {
    "kind": "user",
    "methods": {},
    "version": 1
  }
}