{
  "contractName": "KryptoBirdz",
  "abi": [
    {
      "inputs": [],
      "stateMutability": "nonpayable",
      "type": "constructor"
    },
    {
      "anonymous": false,
      "inputs": [
        {
          "indexed": true,
          "internalType": "address",
          "name": "from",
          "type": "address"
        },
        {
          "indexed": true,
          "internalType": "address",
          "name": "to",
          "type": "address"
        },
        {
          "indexed": true,
          "internalType": "uint256",
          "name": "tokenId",
          "type": "uint256"
        }
      ],
      "name": "Trasnfer",
      "type": "event"
    },
    {
      "inputs": [
        {
          "internalType": "address",
          "name": "_owner",
          "type": "address"
        }
      ],
      "name": "balanceOf",
      "outputs": [
        {
          "internalType": "uint256",
          "name": "",
          "type": "uint256"
        }
      ],
      "stateMutability": "view",
      "type": "function"
    },
    {
      "inputs": [
        {
          "internalType": "uint256",
          "name": "",
          "type": "uint256"
        }
      ],
      "name": "kryptoBirds",
      "outputs": [
        {
          "internalType": "string",
          "name": "",
          "type": "string"
        }
      ],
      "stateMutability": "view",
      "type": "function"
    },
    {
      "inputs": [],
      "name": "name",
      "outputs": [
        {
          "internalType": "string",
          "name": "",
          "type": "string"
        }
      ],
      "stateMutability": "view",
      "type": "function"
    },
    {
      "inputs": [
        {
          "internalType": "uint256",
          "name": "tokenId",
          "type": "uint256"
        }
      ],
      "name": "ownerOf",
      "outputs": [
        {
          "internalType": "address",
          "name": "",
          "type": "address"
        }
      ],
      "stateMutability": "view",
      "type": "function"
    },
    {
      "inputs": [],
      "name": "symbol",
      "outputs": [
        {
          "internalType": "string",
          "name": "",
          "type": "string"
        }
      ],
      "stateMutability": "view",
      "type": "function"
    },
    {
      "inputs": [],
      "name": "totalSupply",
      "outputs": [
        {
          "internalType": "uint256",
          "name": "",
          "type": "uint256"
        }
      ],
      "stateMutability": "view",
      "type": "function"
    },
    {
      "inputs": [
        {
          "internalType": "string",
          "name": "krypto",
          "type": "string"
        }
      ],
      "name": "mint",
      "outputs": [],
      "stateMutability": "nonpayable",
      "type": "function"
    }
  ],
  "bytecode": "0x60806040523480156200001157600080fd5b506040518060400160405280600881526020017f50616b6f204e66740000000000000000000000000000000000000000000000008152506040518060400160405280600381526020017f50616b00000000000000000000000000000000000000000000000000000000008152508181816000908051906020019062000098929190620000bc565b508060019080519060200190620000b1929190620000bc565b5050505050620001d0565b828054620000ca906200019b565b90600052602060002090601f016020900481019282620000ee57600085556200013a565b82601f106200010957805160ff19168380011785556200013a565b828001600101855582156200013a579182015b82811115620001395782518255916020019190600101906200011c565b5b5090506200014991906200014d565b5090565b5b80821115620001685760008160009055506001016200014e565b5090565b7f4e487b7100000000000000000000000000000000000000000000000000000000600052602260045260246000fd5b60006002820490506001821680620001b457607f821691505b602082108103620001ca57620001c96200016c565b5b50919050565b610f0880620001e06000396000f3fe608060405234801561001057600080fd5b506004361061007d5760003560e01c806370a082311161005b57806370a08231146100ee57806395d89b411461011e578063b20dac5f1461013c578063d85d3d271461016c5761007d565b806306fdde031461008257806318160ddd146100a05780636352211e146100be575b600080fd5b61008a610188565b60405161009791906109a6565b60405180910390f35b6100a861021a565b6040516100b591906109e1565b60405180910390f35b6100d860048036038101906100d39190610a3c565b610227565b6040516100e59190610aaa565b60405180910390f35b61010860048036038101906101039190610af1565b610305565b60405161011591906109e1565b60405180910390f35b6101266103bc565b60405161013391906109a6565b60405180910390f35b61015660048036038101906101519190610a3c565b61044e565b60405161016391906109a6565b60405180910390f35b61018660048036038101906101819190610c53565b6104fa565b005b60606000805461019790610ccb565b80601f01602080910402602001604051908101604052809291908181526020018280546101c390610ccb565b80156102105780601f106101e557610100808354040283529160200191610210565b820191906000526020600020905b8154815290600101906020018083116101f357829003601f168201915b5050505050905090565b6000600480549050905090565b60008073ffffffffffffffffffffffffffffffffffffffff166002600084815260200190815260200160002060009054906101000a900473ffffffffffffffffffffffffffffffffffffffff1673ffffffffffffffffffffffffffffffffffffffff16036102ca576040517f08c379a00000000000000000000000000000000000000000000000000000000081526004016102c190610d48565b60405180910390fd5b6002600083815260200190815260200160002060009054906101000a900473ffffffffffffffffffffffffffffffffffffffff169050919050565b60008073ffffffffffffffffffffffffffffffffffffffff168273ffffffffffffffffffffffffffffffffffffffff1603610375576040517f08c379a000000000000000000000000000000000000000000000000000000000815260040161036c90610d48565b60405180910390fd5b600360008373ffffffffffffffffffffffffffffffffffffffff1673ffffffffffffffffffffffffffffffffffffffff168152602001908152602001600020549050919050565b6060600180546103cb90610ccb565b80601f01602080910402602001604051908101604052809291908181526020018280546103f790610ccb565b80156104445780601f1061041957610100808354040283529160200191610444565b820191906000526020600020905b81548152906001019060200180831161042757829003601f168201915b5050505050905090565b6008818154811061045e57600080fd5b90600052602060002001600091509050805461047990610ccb565b80601f01602080910402602001604051908101604052809291908181526020018280546104a590610ccb565b80156104f25780601f106104c7576101008083540402835291602001916104f2565b820191906000526020600020905b8154815290600101906020018083116104d557829003601f168201915b505050505081565b60098160405161050a9190610da4565b908152602001604051809103902060009054906101000a900460ff1615610566576040517f08c379a000000000000000000000000000000000000000000000000000000000815260040161055d90610e07565b60405180910390fd5b6008819080600181540180825580915050600190039060005260206000200160009091909190915090805190602001906105a192919061086a565b50600060016008805490506105b69190610e56565b90506105c233826105fd565b60016009836040516105d49190610da4565b908152602001604051809103902060006101000a81548160ff0219169083151502179055505050565b610607828261067a565b610610816107cc565b600660008373ffffffffffffffffffffffffffffffffffffffff1673ffffffffffffffffffffffffffffffffffffffff1681526020019081526020016000208190806001815401808255809150506001900390600052602060002001600090919091909150555050565b600073ffffffffffffffffffffffffffffffffffffffff168273ffffffffffffffffffffffffffffffffffffffff16036106b357600080fd5b6106bc816107f8565b156106c657600080fd5b816002600083815260200190815260200160002060006101000a81548173ffffffffffffffffffffffffffffffffffffffff021916908373ffffffffffffffffffffffffffffffffffffffff160217905550600360008373ffffffffffffffffffffffffffffffffffffffff1673ffffffffffffffffffffffffffffffffffffffff168152602001908152602001600020600081548092919061076890610e8a565b9190505550808273ffffffffffffffffffffffffffffffffffffffff163373ffffffffffffffffffffffffffffffffffffffff167f3bad7987490d6d1d80a026e79dff0621bacb49fc40e2899d3c99428833c11a5b60405160405180910390a45050565b600481908060018154018082558091505060019003906000526020600020016000909190919091505550565b6000806002600084815260200190815260200160002060009054906101000a900473ffffffffffffffffffffffffffffffffffffffff169050600073ffffffffffffffffffffffffffffffffffffffff168173ffffffffffffffffffffffffffffffffffffffff161415915050919050565b82805461087690610ccb565b90600052602060002090601f01602090048101928261089857600085556108df565b82601f106108b157805160ff19168380011785556108df565b828001600101855582156108df579182015b828111156108de5782518255916020019190600101906108c3565b5b5090506108ec91906108f0565b5090565b5b808211156109095760008160009055506001016108f1565b5090565b600081519050919050565b600082825260208201905092915050565b60005b8381101561094757808201518184015260208101905061092c565b83811115610956576000848401525b50505050565b6000601f19601f8301169050919050565b60006109788261090d565b6109828185610918565b9350610992818560208601610929565b61099b8161095c565b840191505092915050565b600060208201905081810360008301526109c0818461096d565b905092915050565b6000819050919050565b6109db816109c8565b82525050565b60006020820190506109f660008301846109d2565b92915050565b6000604051905090565b600080fd5b600080fd5b610a19816109c8565b8114610a2457600080fd5b50565b600081359050610a3681610a10565b92915050565b600060208284031215610a5257610a51610a06565b5b6000610a6084828501610a27565b91505092915050565b600073ffffffffffffffffffffffffffffffffffffffff82169050919050565b6000610a9482610a69565b9050919050565b610aa481610a89565b82525050565b6000602082019050610abf6000830184610a9b565b92915050565b610ace81610a89565b8114610ad957600080fd5b50565b600081359050610aeb81610ac5565b92915050565b600060208284031215610b0757610b06610a06565b5b6000610b1584828501610adc565b91505092915050565b600080fd5b600080fd5b7f4e487b7100000000000000000000000000000000000000000000000000000000600052604160045260246000fd5b610b608261095c565b810181811067ffffffffffffffff82111715610b7f57610b7e610b28565b5b80604052505050565b6000610b926109fc565b9050610b9e8282610b57565b919050565b600067ffffffffffffffff821115610bbe57610bbd610b28565b5b610bc78261095c565b9050602081019050919050565b82818337600083830152505050565b6000610bf6610bf184610ba3565b610b88565b905082815260208101848484011115610c1257610c11610b23565b5b610c1d848285610bd4565b509392505050565b600082601f830112610c3a57610c39610b1e565b5b8135610c4a848260208601610be3565b91505092915050565b600060208284031215610c6957610c68610a06565b5b600082013567ffffffffffffffff811115610c8757610c86610a0b565b5b610c9384828501610c25565b91505092915050565b7f4e487b7100000000000000000000000000000000000000000000000000000000600052602260045260246000fd5b60006002820490506001821680610ce357607f821691505b602082108103610cf657610cf5610c9c565b5b50919050565b7f6f776e6572206e667473206e6f74206578697374730000000000000000000000600082015250565b6000610d32601583610918565b9150610d3d82610cfc565b602082019050919050565b60006020820190508181036000830152610d6181610d25565b9050919050565b600081905092915050565b6000610d7e8261090d565b610d888185610d68565b9350610d98818560208601610929565b80840191505092915050565b6000610db08284610d73565b915081905092915050565b7f4572726f72206b727970746f20616c7265616479206578697374732100000000600082015250565b6000610df1601c83610918565b9150610dfc82610dbb565b602082019050919050565b60006020820190508181036000830152610e2081610de4565b9050919050565b7f4e487b7100000000000000000000000000000000000000000000000000000000600052601160045260246000fd5b6000610e61826109c8565b9150610e6c836109c8565b925082821015610e7f57610e7e610e27565b5b828203905092915050565b6000610e95826109c8565b91507fffffffffffffffffffffffffffffffffffffffffffffffffffffffffffffffff8203610ec757610ec6610e27565b5b60018201905091905056fea2646970667358221220c8cdf2cbfa6bc4515fb39f03dc051a73e52f8aec8e759b36b19badcdd465aca364736f6c634300080d0033",
  "immutableReferences": {},
  "source": "// SPDX-License-Identifier: MIT\r\npragma solidity ^0.8.0;\r\n\r\nimport \"./ERC721Connector.sol\";\r\n\r\ncontract KryptoBirdz is ERC721Connector {\r\n\r\n    string[] public kryptoBirds;\r\n    \r\n    mapping (string => bool) _kryptoExists;\r\n   \r\n    function mint(string memory krypto) public{\r\n        require(!_kryptoExists[krypto],\"Error krypto already exists!\");\r\n        kryptoBirds.push(krypto);\r\n\r\n        uint _id = kryptoBirds.length - 1;\r\n\r\n        _mint(msg.sender, _id);\r\n        _kryptoExists[krypto] = true;\r\n\r\n    }\r\n\r\n    constructor() ERC721Connector(\"Pako Nft\", \"Pak\") {}\r\n}\r\n",
  "sourcePath": "D:\\practice\\erc721 with truffle\\contracts\\KryptoBirdz.sol",
  "compiler": {
    "name": "solc",
    "version": "0.8.13+commit.abaa5c0e.Emscripten.clang"
  },
  "schemaVersion": "3.4.6",
  "updatedAt": "2022-07-20T18:16:13.381Z",
  "devdoc": {
    "kind": "dev",
    "methods": {},
    "version": 1
  },
  "userdoc": {
    "kind": "user",
    "methods": {},
    "version": 1
  }
}